:100000000C9434000C941D020C9449000C9449008B
:100010000C9449000C9449000C9449000C9449003C
:100020000C9449000C9449000C9449000C9449002C
:100030000C9449000C9449000C9449000C9449001C
:100040000C9449000C9449000C9449000C9449000C
:100050000C9449000C9449000C9449000C944900FC
:100060000C9449000C94490011241FBECFEFD8E036
:10007000DEBFCDBF11E0A0E0B1E0E4ECF4E002C0EF
:1000800005900D92AE33B107D9F70E94CF000C94C2
:1000900060020C9400009BB19F7D9BB99BB19F7B3C
:1000A0009BB9982F907F95B99BB190689BB9EFE968
:1000B000FFE03197F1F700C000009BB19F779BB93B
:1000C0008295807F85B98BB180688BB98FE99FE07D
:1000D0000197F1F700C000008BB18F778BB90895BD
:1000E0009BB190629BB99BB19F7B9BB9982F907FEE
:1000F00095B99BB190689BB9EFE9FFE03197F1F7B3
:1001000000C000009BB19F779BB98295807F85B925
:100110008BB180688BB98FE99FE00197F1F700C040
:1001200000008BB18F778BB908958FEF84B98AB1B6
:1001300080688AB98AB180628AB98BB18F778BB9AE
:1001400083E30E944B0082E30E944B0088E20E94FE
:100150004B008EE00E944B0080EC0E944B0081E03F
:100160000E944B0080E80E944B008FE39FE10197C3
:10017000F1F700C0000008950F931F93CF938C01F7
:10018000C0E003C00E947000CF5FF801EC0FF11DCA
:1001900080818111F7CFCF911F910F910895CF9357
:1001A000DF93CDB7DEB7C054D1090FB6F894DEBFE8
:1001B0000FBECDBF8AB18B7F8AB98BB184608BB9FA
:1001C000E9E6F0E08081816080838DB381608DBB42
:1001D00078940E94950081E00E944B0082E091E0BB
:1001E0000E94BC0085EC0E944B002FEF83ED90E352
:1001F000215080409040E1F700C0000081E00E9463
:100200004B008EE091E00E94BC0080EC0E944B000D
:100210008FE191E00E94BC002FEF89E698E1215028
:1002200080409040E1F700C00000A12CB12CC12C0F
:10023000D12CE12CF12C00E010E080910001909194
:100240000101892B09F0F4C085B1816085B92FEFD8
:1002500083EC99E0215080409040E1F700C000001D
:1002600085B18E7F85B92FEF83EC99E021508040D6
:100270009040E1F700C00000309916C085B18E7F34
:1002800085B985B1826085B92FEF83EC99E0215063
:1002900080409040E1F700C0000085B18D7F85B9B6
:1002A0000F5F1F4F309BFECF319917C085B18E7FF6
:1002B00085B985B1826085B92FEF83EC99E0215033
:1002C00080409040E1F700C0000085B18D7F85B986
:1002D0002FEFE21AF20A319BFECF329917C085B197
:1002E0008E7F85B985B1826085B98FEF93EC29E067
:1002F000815090402040E1F700C0000085B18D7F23
:1003000085B98FEFC81AD80A329BFECF339917C030
:1003100085B18E7F85B985B1826085B99FEF23EC69
:1003200089E0915020408040E1F700C0000085B195
:100330008D7F85B99FEFA91AB90A339BFECF3499F7
:1003400077C085B18E7F85B985B18D7F85B985B13F
:10035000846085B92FEF83EC99E021508040904074
:10036000E1F700C0000085B18B7F85B92FEF83ECEA
:1003700099E0215080409040E1F700C0000081E00A
:100380000E944B008EE291E00E94BC0082E80E9435
:100390004B004AE0BE016F5F7F4FC8010E942B02F5
:1003A000CE0101960E94BC008AE80E944B0082E3C5
:1003B00091E00E94BC008CE80E944B004AE0BE0124
:1003C0006F5E7F4FC7010E942B02CE0141960E94B3
:1003D000BC0080EC0E944B0086E391E00E94BC00D0
:1003E00082EC0E944B004AE0BE016F5D7F4FC60168
:1003F0000E942B02CE0181960E94BC008AEC0E94D2
:100400004B008AE391E00E94BC008CEC0E944B0000
:100410004AE0BE016F5C7F4FC5010E942B02CE01F6
:10042000C1960E94BC0080E80E944B00349BFECF26
:10043000109201011092000100CF1F920F920FB68F
:100440000F92112410920101109200010F900FBE23
:100450000F901F901895BB274A3031F4992322F44E
:10046000BDE2909581959F4F0C943702BB27FB010D
:100470005527AA27880F991FAA1FA41710F0A41B9D
:1004800083955051B9F7A05DAA3308F0A95DA193F7
:10049000009779F7B111B1931192CB010C945002EE
:1004A000DC01FC01672F71917723E1F7329704C0DB
:1004B0007C916D9370836291AE17BF07C8F3089566
:0404C000F894FFCFDE
:1004C40001002020202057454C434F4D4500506CDF
:1004D40065617365206361737420796F75720020A0
:1004E40076616C7561626C6520766F746500503D51
:0E04F4002000513D2000523D2000533D2000CD
:00000001FF
